:020000040800F2
:10000000D8040020191F0008C51D0008C71D0008DE
:10001000C91D0008CB1D0008CD1D00080000000010
:10002000000000000000000000000000CF1D0008DC
:10003000D11D000800000000D31D0008D51D0008D8
:10004000411F0008451F0008491F00084D1F0008F8
:10005000511F0008551F0008591F00085D1F0008A8
:10006000611F0008651F0008691F00086D1F000858
:10007000711F0008751F0008791F00087D1F000808
:10008000811F0008851F0008891F00088D1F0008B8
:10009000DD1D0008911F0008951F0008991F00082A
:1000A0009D1F0008A11F0008A51F0008A91F000828
:1000B000AD1F0008B11F0008B51F0008B91F0008D8
:1000C000BD1F0008C11F0008C51F0008C91F000888
:1000D000CD1F0008D11F0008D51F0008D91F000838
:1000E000DD1F0008E11F0008E51F0008E91F0008E8
:1000F000ED1F0008F11F0008F51F0008F91F000898
:10010000FD1F000801200008052000080920000844
:100110000D20000811200008E71D00081520000828
:10012000192000081D2000082120000825200008B3
:10013000292000082D200008312000083520000863
:10014000392000083D200008412000084520000813
:10015000492000084D2000085120000855200008C3
:10016000592000085D200008612000086520000873
:10017000692000086D2000087120000800000000C0
:1001800075200008792000087D20000881200008E3
:1001900085200008892000088D2000089120000893
:1001A00095200008992000089D200008A120000843
:1001B000A5200008A9200008AD200008B1200008F3
:1001C000B5200008B920000870B50400002C01D14A
:1001D0000120AEE094F82000002802D1200000F0B9
:1001E0005CFB2068006830F002002168086000F0C5
:1001F000B3FB05002068406880070DD500F0ACFB1C
:10020000401B0B28F6D3606A50F400306062052072
:1002100084F8200001208CE02068006850F0010084
:100220002168086000F098FB060020684068C0075D
:100230000DD400F091FB801B0B28F6D3606A50F4BC
:1002400000306062052084F82000012071E0207EEB
:10025000012806D12068006850F0800021680860FD
:1002600005E02068006830F0800021680860607E4A
:10027000012806D12068006850F04000216808601D
:1002800005E02068006830F0400021680860A07E2A
:10029000012806D12068006850F02000216808601D
:1002A00005E02068006830F0200021680860E07EEA
:1002B000012806D12068006830F01000216808602D
:1002C00005E02068006850F0100021680860207F79
:1002D000012806D12068006850F0080021680860F5
:1002E00005E02068006830F0080021680860607F41
:1002F000012806D12068006850F0040021680860D9
:1003000005E02068006830F0040021680860A168FA
:10031000E068014320690143606901436068401E51
:1003200001432068C16100206062012084F8200040
:10033000002070BDF0B40200146892F8203018005C
:10034000C0B2012804D01800C0B2022840F07F805B
:10035000594DD5F8000250F00100C5F80002D5F85B
:10036000000230F47C50C5F80002D5F800024E6A55
:1003700050EA0620C5F8000201200E7D16F01F0687
:1003800010FA06F6D5F81C02B043C5F81C02C8697D
:10039000002816D1D5F80C02B043C5F80C02486904
:1003A00005EBC000CC684F68C7EA0444C0F840427F
:1003B000486905EBC0008C680F68C7EA0444C0F8C0
:1003C0004442C869012816D1D5F80C023043C5F85B
:1003D0000C02486905EBC0000C684F68C7EA04448A
:1003E000C0F84042486905EBC0008C68CF68C7EA96
:1003F0000444C0F844428869002805D1D5F80402B5
:10040000B043C5F8040204E0D5F804023043C5F84F
:1004100004020869002805D1D5F81402B043C5F8D4
:10042000140204E0D5F814023043C5F81402086A37
:10043000012804D1D5F81C023043C5F81C02D5F8B8
:10044000000240084000C5F80002002004E0506AA5
:1004500050F4802050620120F0BC704738B5040091
:1004600094F82000012821D1022084F8200020687F
:100470000068400840002168086000F06DFA05003F
:1004800020684068C0070DD500F066FA401B0B28B5
:10049000F6D3606A50F400306062052084F82000D2
:1004A000012008E000206062002004E0606A50F44F
:1004B00000206062012032BD0064004070B404007E
:1004C00094F820502800C0B2012804D02800C0B2FF
:1004D000022840F0988000290AD12068C06810F0F6
:1004E000030F10D1606A50F40010606201208FE0A9
:1004F0002068006910F0030F05D1606A50F4001005
:100500006062012084E020680E013044D0F8B00120
:1005100010F0040090609068002807D120680E0158
:100520003044D0F8B001400D106006E020680E01A4
:100530003044D0F8B001C008506020680E0130444B
:10054000D0F8B00110F00200D06020680E013044F5
:10055000D0F8B40110F00F00106120680E01304493
:10056000D0F8B401C0F30720906120680E01304438
:10057000D0F8B401000C506120680E013044D0F86E
:10058000B801187020680E013044D0F8B801000A94
:10059000587020680E013044D0F8B801000C9870F3
:1005A00020680E013044D0F8B801000ED8702068E1
:1005B0000E013044D0F8BC01187120680E0130449F
:1005C000D0F8BC01000A587120680E013044D0F800
:1005D000BC01000C987120680E013044D0F8BC01B9
:1005E000000ED871002906D12068C06850F02000A4
:1005F0002668F06005E02068006950F02000266859
:100600003061002004E0606A50F4802060620120C4
:1006100070BC704710B4020092F820301800C0B2CD
:10062000012803D01800C0B2022806D11068406922
:10063000084314686061002004E0506A50F4802090
:100640005062012010BC70472DE9F84F05000024CE
:1006500028684669286847682868D0F808802868AC
:10066000D0F80C902868D0F810A02868D0F818B0FE
:10067000F00755D55FEAC87018D501202968886051
:100680005FEA887003D5280000F06CF90EE05FEA9D
:10069000487002D554F4006408E05FEA087002D59F
:1006A00054F4805402E0280000F05DF95FEAC8507D
:1006B00019D54FF48070296888605FEA885003D5A7
:1006C000280000F051F90EE05FEA485002D554F4DA
:1006D000005408E05FEA085002D554F4804402E078
:1006E000280000F042F95FEAC83019D55FF4803085
:1006F000296888605FEA883003D5280000F036F961
:100700000EE05FEA483002D554F4004408E05FEAA6
:10071000083002D554F4803402E0280000F027F9B4
:10072000300707D55FEAC96004D554F4007410207F
:100730002968C860700708D55FEA097005D50820E8
:100740002968C860280000F013F9B00707D52868A9
:10075000C06810F0030F02D0280000F003FA700602
:1007600007D55FEACA6004D554F480641020296874
:100770000861B00608D55FEA0A7005D50820296827
:100780000861280000F041FAF00607D528680069E2
:1007900010F0030F02D0280000F038FAB00307D59C
:1007A000F80605D5102029684860280000F02FFAC7
:1007B000F00307D5380705D50820296848602800C8
:1007C00000F026FA300447D5780742D5F00506D563
:1007D0001BF00100C0B2002801D054F00104B005A4
:1007E00004D55FEA8B7001D554F00204700504D57E
:1007F0005FEA4B7001D554F00404300529D51BF095
:10080000700F26D01BF0700010280AD020280BD0C3
:1008100030280CD040280DD050280ED060280FD0A2
:1008200011E054F008040EE054F010040BE054F012
:10083000200408E054F0400405E054F0800402E095
:1008400054F48074FFE72868806930F070002968EC
:100850008861042029684860002C05D0686A20431C
:100860006862280000F0D5F9BDE8F18F81B0344806
:10087000016851F080510160006810F080500090D4
:1008800000983048016851F480410160006810F41C
:1008900080400090009801B0704710B586B0040009
:1008A0001422002101A800F0B5F9206826498842E9
:1008B0002AD12348016851F000710160006810F0EE
:1008C0000070009000982148016851F0010101601A
:1008D000006810F00100009000984FF4C0500190A3
:1008E000022002900020039003200490092005902C
:1008F00001A9174800F098F900220021142000F007
:1009000045FB142000F057FB06B010BD1CB50400D9
:1009100020681049884211D10948016851F010013E
:100920000160006810F01000009000980022002183
:10093000362000F02BFB362000F03DFB13BD0000FD
:1009400040380240443802400064004030380240E1
:10095000000002400010004001480068704700BFDE
:10096000C800002070477047704770477047704755
:10097000704730B4002513E050F8042BD30744BF70
:10098000A9F101039A18091F042942F8045BFAD25D
:1009900013468C0744BF15809B1CC90748BF1D70B8
:1009A00050F8041B0029E7D130BC704710B500F0A7
:1009B0001FFB00F02CF800F0C8F800F07DF800F004
:1009C0009EF800207F49086000207F4908700020C1
:1009D0007E49086000F0DAF87D4C2000FFF73EFD0C
:1009E00002212000FFF716FE7A4800F03FFB7A480C
:1009F0000168491C01600168784A91FBF2F1012904
:100A0000F5D10321764A116000210160EFE780B53E
:100A100092B03022002106A800F0FCF81422002138
:100A200001A800F0F7F86F48016851F080510160AB
:100A3000006810F08050009000986B48016851F4F5
:100A400040410160006810F440400090009802208E
:100A500006900120099010200A9002200C9000209E
:100A60000D9008200E90C0200F90022010900220C0
:100A7000119006A800F05AFC002801D000F0C4F83C
:100A800000F088FF002801D000F0BEF80F20019090
:100A900002200290002003904FF4A05004904FF4E5
:100AA00080500590062101A800F067FE002801D0C3
:100AB00000F0AAF813B000BD80B545484B4901606D
:100AC00003214160002181600021C1605FF4402169
:100AD00001615FF4801141610021017600214176BE
:100AE000002181760021C176002101770021417724
:100AF000FFF76AFB002801D000F086F801BD1FB5A2
:100B00000C220021684600F085F8324C38482060FD
:100B100042F27F5060600020A0606320E06000200F
:100B2000A061200000F086FA002801D000F06CF8E7
:100B300000200090002002906946200000F066FF2F
:100B4000002801D000F060F81FBD81B0294801687D
:100B500051F001010160006810F001000090009860
:100B600001B0704710B504002068204988420CD1BC
:100B7000214B224A00211648FFF7A0FC0120204902
:100B8000087020480168491C016010BD80B58AB01A
:100B90000020059000200690012007900020009082
:100BA000002001900020029000200390002004907B
:100BB000012008900E20099069460548FFF7BAFB0E
:100BC0000BB000BDBC000020D40000207400002049
:100BD0004C0000200C000020B800002020A10700DD
:100BE000C000002040380240007000400064004017
:100BF0000010004030380240B00000209400002077
:100C0000D5000020C400002070477047704770472F
:100C10007047704710B5044610460A460146204604
:100C200000F054FF204610BDF8B500220023002438
:100C300000260025102D80F00D81012717FA05F2FE
:100C400013000A681A4014009C4240F001814A686F
:100C5000012A08D04A68022A05D04A68112A02D01F
:100C60004A68122A1FD1D0F808C05FF0030E2A008C
:100C7000D2B252001EFA02FE3CEA0E0CD1F80CE091
:100C80002A00D2B252001EFA02FE5EEA0C0CC0F834
:100C900008C04268AF40BA434F68C7F30017AF407F
:100CA0003A4316004660C7685FF0030C2A00D2B2D0
:100CB00052001CFA02F29743D1F808E02A00D2B29F
:100CC00052001EFA02FE5EEA0707C7604A68022A5F
:100CD00002D04A68122A1ED12A00D20800EB8202F2
:100CE000166A5FF00F0E15F00702D2B292001EFADC
:100CF00002FE36EA0E06D1F810E015F00702D2B275
:100D000092001EFA02FE5EEA060637002A00D208AA
:100D100000EB8202176206682A00D2B252001CFA67
:100D200002FC36EA0C0691F804C01CF0030C2A0001
:100D3000D2B252001CFA02FC5CEA060606604A685F
:100D4000D20040F18580DFF81021176857F4804702
:100D50001760126812F480420092009ADFF8FCC01B
:100D60002A0092085CF822705FF00F0E15F0030263
:100D7000D2B292001EFA02FE37EA0E07DFF8E02038
:100D8000904201D1002630E0DFF8D820904201D116
:100D900001262AE0DFF8D020904201D1022624E08B
:100DA000DFF8C820904201D103261EE0304A90426D
:100DB00001D1042619E02F4A904201D1052614E002
:100DC0002D4A904201D106260FE02C4A904201D1D3
:100DD00007260AE02A4A904201D1082605E0294A5E
:100DE000904201D1092600E00A26F6B215F003026E
:100DF000D2B29200964037432A0092084CF82270F3
:100E0000214E3268A243D1F804C05FEACC3C00D541
:100E1000224332601D4F3E68A643D1F804C05FEA0A
:100E20008C3C00D526433E60194F3A68A243D1F866
:100E300004C05FEACC2C00D522433A60154F3E68CF
:100E4000A643D1F804C05FEA8C2C00D526433E604F
:100E50006D1CEFE6F1BD0000443802400838014047
:100E6000000002400004024000080240000C024062
:100E7000001002400014024000180240001C024012
:100E80000020024000240240003C0140043C01409C
:100E9000083C01400C3C014010B410F00703DFF89F
:100EA000304122684FF6FF010A40DFF8281151EA6D
:100EB00003210A43226010BC7047DFF81401006868
:100EC000C0F302207047010049B2002909D4012271
:100ED00010F01F018A40404903005BB25B0941F8F2
:100EE0002320704710B4020052B2002A05D40A0130
:100EF0003A4B040064B21A5508E00A01384B04006A
:100F000064B214F00F04234403F8042C10BC70479F
:100F100070B4030013F00704D4F10700052801D3CF
:100F2000042001E0D4F10700251D072D01D2002582
:100F300000E0E51E012616FA00F0401E0140A9401F
:100F400016FA05F56D1E2A401143080070BC704763
:100F500010B50400601EB0F1807F01D301200EE0C7
:100F6000601E204908600F215FF0FF30FFF7BAFFD5
:100F700000201D49086007201C490860002010BDA2
:100F800010B504002000FFF787FF10BD2DE9F041E8
:100F900004000D0016000027FFF78FFF8046320087
:100FA00029004046FFF7B4FF0100200040B2FFF7E0
:100FB00099FFBDE8F08110B50400200040B2FFF7B2
:100FC00082FF10BD10B504002000FFF7C1FF10BD67
:100FD0000CED00E00000FA0500E100E000E400E0B4
:100FE00018ED00E014E000E018E000E010E000E0A0
:100FF00080B50320FFF7C4FF002000F09BFDFFF742
:1010000035FC002002BD30B40EE0026843680244A3
:101010000830DC0744BFA9F10104E31852F8045B6F
:1010200043F8045B091FF9D150F8041B0029ECD1E7
:1010300030BC704710B50400002C01D1012014E031
:1010400094F83D00002805D1002084F83C002000E1
:10105000FFF75CFC022084F83D00211D206800F0B1
:10106000EBF8012084F83D00002010BD0100086865
:10107000C06850F001000A68D06008688268DFF834
:1010800020000240062A08D0B2F5803F05D008684B
:10109000006850F001000B681860002070470000E5
:1010A0000700010010B504002068006980071AD508
:1010B0002068C068800716D57FF0020021680861AB
:1010C000012020772068806910F0030F03D02000F2
:1010D00000F056FD05E0200000F053FD200000F078
:1010E00051FD002020772068006940071AD520684C
:1010F000C068400716D57FF004002168086102200F
:1011000020772068806910F4407F03D0200000F031
:1011100037FD05E0200000F034FD200000F032FD36
:10112000002020772068006900071AD52068C06871
:10113000000716D57FF00800216808610420207799
:101140002068C06910F0030F03D0200000F018FDE4
:1011500005E0200000F015FD200000F013FD002048
:10116000207720680069C0061AD52068C068C006CC
:1011700016D57FF0100021680861082020772068CC
:10118000C06910F4407F03D0200000F0F9FC05E0B6
:10119000200000F0F6FC200000F0F4FC0020207796
:1011A00020680069C0070AD52068C068C00706D556
:1011B0007FF0010021680861200000F0E4FC206855
:1011C000006900060AD52068C068000606D57FF0D1
:1011D000800021680861200000F0D6FC20680069CA
:1011E000C0050AD52068C068000606D57FF4807067
:1011F00021680861200000F0C8FC206800694006F2
:101200000AD52068C068400606D57FF040002168F6
:101210000861200000F0BAFC2068006980060AD549
:101220002068C068800606D57FF02000216808612C
:10123000200000F0ACFC10BD10B40468DFF8C03032
:10124000984212D0B0F1804F0FD0DFF8B820904212
:101250000BD0DFF8B420904207D0DFF8B0209042E6
:1012600003D0DFF8AC20904203D134F070044A6818
:10127000144398422AD0B0F1804F27D0DFF8842061
:10128000904223D0DFF8802090421FD0DFF87C20EE
:1012900090421BD0DFF87820904217D0DFF87420FE
:1012A000904213D0DFF8702090420FD0DFF86C200E
:1012B00090420BD0DFF86820904207D0DFF864201E
:1012C000904203D0DFF86020904203D134F44074A0
:1012D000CA68144334F080044A69144304608A687D
:1012E000C2620A688262984203D0DFF824209042EA
:1012F00001D10A6902630122426110BC70470000FB
:10130000000001400004004000080040000C0040C4
:1013100000040140004001400044014000480140F9
:1013200000180040001C0040002000402DE9F84358
:1013300004000027002C01D101201CE22078C00706
:101340006DD5DFF82006016811F00C01042909D0E1
:10135000006810F00C0008280ED1DFF80C060068B9
:10136000400209D5DFF8F8050068800357D56068AA
:10137000002854D10120FEE16068B0F5803F06D11D
:10138000DFF8DC05016851F48031016026E0606817
:1013900000280AD1DFF8C805016831F48031016006
:1013A000016831F48021016018E06068B0F5A02F79
:1013B0000AD1DFF8AC05016851F4802101600168B1
:1013C00051F48031016009E0DFF89405016831F4DF
:1013D00080310160016831F480210160606800287B
:1013E0000ED0FFF7B9FA0500DFF874050068800336
:1013F00015D4FFF7B1FA401B6528F5D30320BAE1F5
:10140000FFF7AAFA0500DFF858050068800306D543
:10141000FFF7A2FA401B6528F5D30320ABE1207843
:1014200080075AD5DFF83C05016811F00C0F09D090
:10143000006810F00C00082816D1DFF82C050068B1
:10144000400211D4DFF818050168890704D5E16866
:10145000012901D001208EE1016831F0F8012269F3
:1014600051EAC201016038E0E06800281FD0DFF8CF
:10147000F084D8F8000050F00100C8F80000FFF731
:101480006BFA0500D8F80000800706D4FFF764FA6D
:10149000401B0328F6D303206DE1D8F8000030F09C
:1014A000F800216950EAC100C8F8000015E0DFF833
:1014B000B084D8F8000040084000C8F80000FFF7EA
:1014C0004BFA0500D8F80000800706D5FFF744FA6C
:1014D000401B0328F6D303204DE1207800072ED5CA
:1014E0006069002815D0DFF88484D8F8000050F037
:1014F0000100C8F80000FFF72FFA0500D8F8000037
:1015000080071CD4FFF728FA401B0328F6D30320DA
:1015100031E1DFF85884D8F8000040084000C8F8EE
:101520000000FFF719FA0500D8F80000800706D57B
:10153000FFF712FA401B0328F6D303201BE12078A3
:10154000400740F18D80DFF83484D8F80000C000F7
:101550000DD4D8F8000050F08050C8F80000D8F83A
:10156000000010F080500090009801200700DFF884
:101570001094D9F80000C00513D4D9F8000050F435
:101580008070C9F80000FFF7E7F90500D9F80000FE
:10159000C00506D4FFF7E0F9401B6528F6D3032009
:1015A000E9E0A068012806D1DFF8D803016851F00E
:1015B0000101016025E0A06800280AD1DFF8C4031A
:1015C0000168490849000160016831F004010160C7
:1015D00017E0A06805280AD1DFF8A803016851F0D8
:1015E00004010160016851F00101016009E0DFF8C8
:1015F00094030168490849000160016831F0040161
:101600000160A068002810D0FFF7A6F90500DFF8F8
:1016100074030068800719D4FFF79EF9401B41F25C
:1016200089318842F3D30320A5E0FFF795F905003F
:10163000DFF850030068800708D5FFF78DF9401BDD
:1016400041F289318842F3D3032094E03800C0B2DC
:10165000012805D1D8F8000030F08050C8F800000B
:10166000A069002800F08680DFF8F802006810F01A
:101670000C00082856D0A06902283DD1DFF8E0828E
:10168000D8F8000030F08070C8F80000FFF764F967
:101690008146D8F80000800107D5FFF75DF9B0EB6F
:1016A00009000328F5D3032065E0E169206A0143BE
:1016B000606A51EA8011A06A4008401E51EA004168
:1016C000E06A51EA006151F00051DFF89C020160CC
:1016D000D8F8000050F08070C8F80000FFF73CF91F
:1016E0000500D8F80000800144D4FFF735F9401B0D
:1016F0000328F6D303203EE0DFF86482D8F8000028
:1017000030F08070C8F80000FFF726F90500D8F81F
:10171000000080012ED5FFF71FF9401B0328F6D3E8
:10172000032028E0DFF8400200680600A0690128D5
:101730001ED016F48000E169884219D116F03F00EE
:10174000216A884214D147F6C0703040616AB0EB1C
:10175000811F0DD116F44030A16A4908491EB0EB33
:10176000014F05D116F07060E16AB0EB016F01D056
:10177000012000E00020BDE8F2832DE9F0410400E3
:101780000D000026002C01D10120A0E0DFF8F87147
:10179000386810F00F00A8420BD238680009000129
:1017A00028433860386810F00F00A84201D00120AB
:1017B0008DE02078800719D52078400705D5DFF81F
:1017C000A401016851F4E05101602078000705D5BB
:1017D000DFF89001016851F460410160DFF8841185
:1017E0000A6832F0F002A06802430A602078C0075D
:1017F00037D56068012806D1DFF8640100688003EE
:1018000011D4012063E06068022806D1DFF850019E
:101810000068800107D4012059E051480068800722
:1018200001D4012053E0DFF83C81D8F8001089088A
:10183000890060680143C8F80010FFF78DF80600C2
:10184000D8F8000010F00C006168B0EB810F08D0F0
:10185000FFF782F8801B41F289318842F0D30320E0
:1018600035E0386810F00F0085420BD23868000967
:10187000000128433860386810F00F00A84201D0FA
:10188000012024E02078400706D536490A6832F462
:10189000E052E06802430A602078000707D531482B
:1018A000016831F46041226951EAC201016000F02F
:1018B00010F836492B4A1268C2F30312895CC840FB
:1018C0002C4908602C48006800F034F90020BDE87D
:1018D000F0812DE9F0410024002500260027214851
:1018E000006810F00C00002804D0042804D0082858
:1018F00004D031E01E4830E025482EE0DFF8688053
:10190000D8F8000010F03F000400D8F800004002B2
:101910000CD5D8F80000C0F388101D49A1FB0001C8
:101920002200002300F034F905000BE0D8F8000095
:10193000C0F388100E49A1FB00012200002300F033
:1019400027F90500D8F80000C0F30140401C400012
:101950000600B5FBF6F000E00548BDE8F0810000A8
:10196000003802400838024004380240743802400F
:101970000024F40004000020000000204038024051
:101980000070004070380240003C0240081F000810
:1019900040787D017CB500241B48016851F08051DE
:1019A0000160006810F0805000900098154E30687B
:1019B00050F480303060FEF7CFFF0500104C2068F7
:1019C000C00308D4FEF7C8FF401B40F2E93188424B
:1019D000F4D3032013E0306850F400303060FEF799
:1019E000BBFF06002068800308D4FEF7B5FF801B0C
:1019F00040F2E9318842F5D3032000E0002076BDB3
:101A000004700040007000404038024070B4020092
:101A100092F83C00012801D1022047E0012082F821
:101A20003C00022082F83D0010684368106884681A
:101A30001F4D1068A84203D010681E4EB04203D15B
:101A400033F470034868034333F0700308680343BA
:101A5000106843601068A8421BD01068B0F1804F36
:101A600017D01068144DA84213D01068134DA84227
:101A70000FD01068124DA8420BD010680D4DA8422F
:101A800007D010680F4DA84203D010680E4DA84231
:101A900005D134F080048868044310688460012014
:101AA00082F83D00002082F83C00002070BC7047A6
:101AB0000000014000040140000400400008004014
:101AC000000C0040004001400018004062F30F226B
:101AD00062F31F42401810F0030308D0C91A1FD345
:101AE000DB0748BF00F8012D28BF20F8022D1300A6
:101AF00030B414461546103928BF20E93C00FAD806
:101B0000490728BF20E90C0048BF40F8042D890090
:101B100028BF20F8022D48BF00F8012D30BC7047C7
:101B2000C91818BF00F8012DCB0728BF00F8012DF8
:101B30007047000010B504004FF47A700D49097821
:101B4000B0FBF1F00C490968B1FBF0F0FFF73AFA8D
:101B5000002801D001200CE0102C09D20022210025
:101B60005FF0FF30FFF712FA04480460002000E045
:101B7000012010BD0800002004000020000000200B
:101B8000704770477047704770477047704770479D
:101B9000BBBBE1B1B2F5803F80F07E80022A1ED946
:101BA0008C46B1FBF2F102FB11C31B0443EA104364
:101BB000B3FBF2FC02FB1C3380B240EA0343B3FBED
:101BC000F2F002FB103240EA0C4000237047022A78
:101BD00005D98446B0FBF2F002FB10C270474AB14F
:101BE00005D100F0010249085FEA30007047002289
:101BF0000023704700F0E4B80B0002000021002031
:101C00007047904271EB030CF6D3B3F5803F2FD2AF
:101C1000F0B5B3FA83F7B1FA81F4A7F10F0E3D1BCB
:101C20005340CEF1200602FA0EF2F3415340B5F1D3
:101C30000F0746D80F3C2C444140C4F12006A04079
:101C4000F1414140B1FBF3F603FB1611A2FB06453F
:101C5000001BA94102D2761E8018594180EA010278
:101C600021FA0EF362FA0EF200215A403046F0BD1E
:101C700030B4B1FBF3FC03FB1C11A2FB0C45001BB1
:101C8000A94103D2ACF1010C8018594130BC024685
:101C90000B46604600217047B2F1807F65D3F0B5F6
:101CA000B2FA82F7B1FA81F4C7F10F063D1B22FAAE
:101CB00006F307F1110EF24120355A40B5F10F0736
:101CC000B8D94140C4F12006A040F1414140B1FBE8
:101CD000F3FC03FB1C11A2FB0C45001BA94103D222
:101CE000BCF1010C801859410F2F12D30F3FC903CB
:101CF00041EA5041B1FBF3F603FB1611A2FB064586
:101D0000D4EBC030A94102D2761E8018594146EA70
:101D1000CC3C07B34140C7F12006B840F1414140F7
:101D2000B1FBF3F603FB1611A2FB0645001BA9410C
:101D300002D2761E8018594180EA010221FA0EF380
:101D4000C7F1200462FA0EF20CFA07F05A402CFA9E
:101D500004F13043F0BD80EA010221FA0EF30021C4
:101D600062FA0EF260465A40F0BD8C46B1FBF2F1C9
:101D700002FB11C31B0243EA1063B3FBF2FC02FB3C
:101D80001C331B024CEA002043EA1063B3FBF2FC55
:101D900002FB1C331B024CEA002043EA1063B3FB36
:101DA000F2FC02FB1C331B024CEA002043EA1063E6
:101DB000B3FBF2FC02FB1C324CEA0020002370470C
:101DC000704700007047FEE7FEE7FEE7FEE770475A
:101DD0007047704780B500F021F801BD80B50B4811
:101DE000FEF732FC01BD80B509480168491C01605D
:101DF0000168022905D107490A68521C0A600021BE
:101E000001600548FFF74EF901BD00004C000020BD
:101E1000CC000020D00000200C0000200348016806
:101E2000034A127889180160704700BFC80000207B
:101E30000800002010B5074979441831064C7C444D
:101E4000163404E00A68081D114488470146A1427F
:101E5000F8D110BD2C0000004C0000004EF6885157
:101E6000CEF20001086840F470000860BFF34F8FA5
:101E7000BFF36F8F4FF00070E1EE100A7047000063
:101E8000F3EAFFFFCC0000000C000020000000007F
:101E900077F1FFFF0C0000009C0000000000002014
:101EA0000000000000F00DF8002801D0FFF7C2FF8D
:101EB000AFF300800020AFF30080FEF777FD00F065
:101EC00002F80120704700F001B8000007463846CC
:101ED00000F002F8FBE7000080B5AFF30080024A93
:101EE00011001820ABBEFBE7260002000448016881
:101EF00051F4700101605FF00060024908607047B2
:101F000088ED00E008ED00E00000000000000000A7
:101F100001020304060708090148804701480047F9
:101F2000ED1E0008291F0008AFF30080FFF796FFA1
:101F3000FFF7B8FF100000000024F40001000000CB
:101F4000FFF7FEBFFFF7FEBFFFF7FEBFFFF7FEBFC5
:101F5000FFF7FEBFFFF7FEBFFFF7FEBFFFF7FEBFB5
:101F6000FFF7FEBFFFF7FEBFFFF7FEBFFFF7FEBFA5
:101F7000FFF7FEBFFFF7FEBFFFF7FEBFFFF7FEBF95
:101F8000FFF7FEBFFFF7FEBFFFF7FEBFFFF7FEBF85
:101F9000FFF7FEBFFFF7FEBFFFF7FEBFFFF7FEBF75
:101FA000FFF7FEBFFFF7FEBFFFF7FEBFFFF7FEBF65
:101FB000FFF7FEBFFFF7FEBFFFF7FEBFFFF7FEBF55
:101FC000FFF7FEBFFFF7FEBFFFF7FEBFFFF7FEBF45
:101FD000FFF7FEBFFFF7FEBFFFF7FEBFFFF7FEBF35
:101FE000FFF7FEBFFFF7FEBFFFF7FEBFFFF7FEBF25
:101FF000FFF7FEBFFFF7FEBFFFF7FEBFFFF7FEBF15
:10200000FFF7FEBFFFF7FEBFFFF7FEBFFFF7FEBF04
:10201000FFF7FEBFFFF7FEBFFFF7FEBFFFF7FEBFF4
:10202000FFF7FEBFFFF7FEBFFFF7FEBFFFF7FEBFE4
:10203000FFF7FEBFFFF7FEBFFFF7FEBFFFF7FEBFD4
:10204000FFF7FEBFFFF7FEBFFFF7FEBFFFF7FEBFC4
:10205000FFF7FEBFFFF7FEBFFFF7FEBFFFF7FEBFB4
:10206000FFF7FEBFFFF7FEBFFFF7FEBFFFF7FEBFA4
:10207000FFF7FEBFFFF7FEBFFFF7FEBFFFF7FEBF94
:10208000FFF7FEBFFFF7FEBFFFF7FEBFFFF7FEBF84
:10209000FFF7FEBFFFF7FEBFFFF7FEBFFFF7FEBF74
:1020A000FFF7FEBFFFF7FEBFFFF7FEBFFFF7FEBF64
:0C20B000FFF7FEBFFFF7FEBFFFF7FEBF0B
:0400000508001F29A7
:00000001FF
